{
  "contractName": "DonationAccount",
  "abi": [
    {
      "inputs": [
        {
          "internalType": "address",
          "name": "_usdc_address",
          "type": "address"
        },
        {
          "internalType": "address",
          "name": "_cusdc_address",
          "type": "address"
        }
      ],
      "payable": false,
      "stateMutability": "nonpayable",
      "type": "constructor"
    },
    {
      "anonymous": false,
      "inputs": [
        {
          "indexed": true,
          "internalType": "address",
          "name": "sender",
          "type": "address"
        },
        {
          "indexed": false,
          "internalType": "uint256",
          "name": "amount",
          "type": "uint256"
        }
      ],
      "name": "Deposited",
      "type": "event"
    },
    {
      "anonymous": false,
      "inputs": [
        {
          "indexed": true,
          "internalType": "address",
          "name": "sender",
          "type": "address"
        },
        {
          "indexed": false,
          "internalType": "uint256",
          "name": "amount",
          "type": "uint256"
        }
      ],
      "name": "Supplied",
      "type": "event"
    },
    {
      "constant": true,
      "inputs": [],
      "name": "cusdc",
      "outputs": [
        {
          "internalType": "contract CErc20",
          "name": "",
          "type": "address"
        }
      ],
      "payable": false,
      "stateMutability": "view",
      "type": "function"
    },
    {
      "constant": true,
      "inputs": [],
      "name": "deposited_balance",
      "outputs": [
        {
          "internalType": "uint256",
          "name": "",
          "type": "uint256"
        }
      ],
      "payable": false,
      "stateMutability": "view",
      "type": "function"
    },
    {
      "constant": true,
      "inputs": [
        {
          "internalType": "address",
          "name": "",
          "type": "address"
        }
      ],
      "name": "donate_amount",
      "outputs": [
        {
          "internalType": "uint256",
          "name": "",
          "type": "uint256"
        }
      ],
      "payable": false,
      "stateMutability": "view",
      "type": "function"
    },
    {
      "constant": true,
      "inputs": [
        {
          "internalType": "uint256",
          "name": "",
          "type": "uint256"
        }
      ],
      "name": "projects",
      "outputs": [
        {
          "internalType": "address",
          "name": "",
          "type": "address"
        }
      ],
      "payable": false,
      "stateMutability": "view",
      "type": "function"
    },
    {
      "constant": true,
      "inputs": [],
      "name": "supplied_balance",
      "outputs": [
        {
          "internalType": "uint256",
          "name": "",
          "type": "uint256"
        }
      ],
      "payable": false,
      "stateMutability": "view",
      "type": "function"
    },
    {
      "constant": true,
      "inputs": [],
      "name": "usdc",
      "outputs": [
        {
          "internalType": "contract FiatTokenV1",
          "name": "",
          "type": "address"
        }
      ],
      "payable": false,
      "stateMutability": "view",
      "type": "function"
    },
    {
      "constant": false,
      "inputs": [
        {
          "internalType": "uint256",
          "name": "_amount",
          "type": "uint256"
        }
      ],
      "name": "_deposit",
      "outputs": [],
      "payable": false,
      "stateMutability": "nonpayable",
      "type": "function"
    },
    {
      "constant": false,
      "inputs": [
        {
          "internalType": "uint256",
          "name": "_amount",
          "type": "uint256"
        }
      ],
      "name": "supply",
      "outputs": [],
      "payable": false,
      "stateMutability": "nonpayable",
      "type": "function"
    },
    {
      "constant": false,
      "inputs": [
        {
          "internalType": "address",
          "name": "_project_address",
          "type": "address"
        },
        {
          "internalType": "uint256",
          "name": "_amount",
          "type": "uint256"
        }
      ],
      "name": "add_donate_project",
      "outputs": [],
      "payable": false,
      "stateMutability": "nonpayable",
      "type": "function"
    },
    {
      "constant": false,
      "inputs": [],
      "name": "getUnderlyingBalance",
      "outputs": [
        {
          "internalType": "uint256",
          "name": "",
          "type": "uint256"
        }
      ],
      "payable": false,
      "stateMutability": "nonpayable",
      "type": "function"
    },
    {
      "constant": false,
      "inputs": [],
      "name": "getInterestBalance",
      "outputs": [
        {
          "internalType": "uint256",
          "name": "",
          "type": "uint256"
        }
      ],
      "payable": false,
      "stateMutability": "nonpayable",
      "type": "function"
    },
    {
      "constant": false,
      "inputs": [
        {
          "internalType": "address",
          "name": "_project_address",
          "type": "address"
        }
      ],
      "name": "donate",
      "outputs": [],
      "payable": false,
      "stateMutability": "nonpayable",
      "type": "function"
    }
  ],
  "bytecode": "0x608060405234801561001057600080fd5b50604051610f40380380610f408339818101604052604081101561003357600080fd5b810190808051906020019092919080519060200190929190505050816000806101000a81548173ffffffffffffffffffffffffffffffffffffffff021916908373ffffffffffffffffffffffffffffffffffffffff16021790555080600160006101000a81548173ffffffffffffffffffffffffffffffffffffffff021916908373ffffffffffffffffffffffffffffffffffffffff1602179055505050610e60806100e06000396000f3fe608060405234801561001057600080fd5b50600436106100b35760003560e01c8063354030231161007157806335403023146102785780633e413bee146102a6578063529db601146102f0578063772f502a1461030e5780639213b1241461032c578063e2c674391461035a576100b3565b8062362a95146100b85780630d86e7eb146100fc5780630d9a37bb1461011a578063107046bd1461017257806320852ee7146101e057806329c1f7f71461022a575b600080fd5b6100fa600480360360208110156100ce57600080fd5b81019080803573ffffffffffffffffffffffffffffffffffffffff169060200190929190505050610378565b005b61010461063a565b6040518082815260200191505060405180910390f35b61015c6004803603602081101561013057600080fd5b81019080803573ffffffffffffffffffffffffffffffffffffffff169060200190929190505050610640565b6040518082815260200191505060405180910390f35b61019e6004803603602081101561018857600080fd5b8101908080359060200190929190505050610658565b604051808273ffffffffffffffffffffffffffffffffffffffff1673ffffffffffffffffffffffffffffffffffffffff16815260200191505060405180910390f35b6101e8610694565b604051808273ffffffffffffffffffffffffffffffffffffffff1673ffffffffffffffffffffffffffffffffffffffff16815260200191505060405180910390f35b6102766004803603604081101561024057600080fd5b81019080803573ffffffffffffffffffffffffffffffffffffffff169060200190929190803590602001909291905050506106ba565b005b6102a46004803603602081101561028e57600080fd5b81019080803590602001909291905050506107b9565b005b6102ae6109ed565b604051808273ffffffffffffffffffffffffffffffffffffffff1673ffffffffffffffffffffffffffffffffffffffff16815260200191505060405180910390f35b6102f8610a12565b6040518082815260200191505060405180910390f35b610316610a18565b6040518082815260200191505060405180910390f35b6103586004803603602081101561034257600080fd5b8101908080359060200190929190505050610b14565b005b610362610d09565b6040518082815260200191505060405180910390f35b6000600560008373ffffffffffffffffffffffffffffffffffffffff1673ffffffffffffffffffffffffffffffffffffffff1681526020019081526020016000205490506000600160009054906101000a900473ffffffffffffffffffffffffffffffffffffffff1673ffffffffffffffffffffffffffffffffffffffff1663852a12e3836040518263ffffffff1660e01b815260040180828152602001915050602060405180830381600087803b15801561043357600080fd5b505af1158015610447573d6000803e3d6000fd5b505050506040513d602081101561045d57600080fd5b8101908080519060200190929190505050146104e1576040517f08c379a00000000000000000000000000000000000000000000000000000000081526004018080602001828103825260148152602001807f736f6d657468696e672077656e742077726f6e6700000000000000000000000081525060200191505060405180910390fd5b6000809054906101000a900473ffffffffffffffffffffffffffffffffffffffff1673ffffffffffffffffffffffffffffffffffffffff1663a9059cbb83836040518363ffffffff1660e01b8152600401808373ffffffffffffffffffffffffffffffffffffffff1673ffffffffffffffffffffffffffffffffffffffff16815260200182815260200192505050602060405180830381600087803b15801561058957600080fd5b505af115801561059d573d6000803e3d6000fd5b505050506040513d60208110156105b357600080fd5b8101908080519060200190929190505050610636576040517f08c379a000000000000000000000000000000000000000000000000000000000815260040180806020018281038252600d8152602001807f5472616e73666572204661696c0000000000000000000000000000000000000081525060200191505060405180910390fd5b5050565b60035481565b60056020528060005260406000206000915090505481565b6004818154811061066557fe5b906000526020600020016000915054906101000a900473ffffffffffffffffffffffffffffffffffffffff1681565b600160009054906101000a900473ffffffffffffffffffffffffffffffffffffffff1681565b60048290806001815401808255809150509060018203906000526020600020016000909192909190916101000a81548173ffffffffffffffffffffffffffffffffffffffff021916908373ffffffffffffffffffffffffffffffffffffffff1602179055505061077281600560008573ffffffffffffffffffffffffffffffffffffffff1673ffffffffffffffffffffffffffffffffffffffff16815260200190815260200160002054610dec90919063ffffffff16565b600560008473ffffffffffffffffffffffffffffffffffffffff1673ffffffffffffffffffffffffffffffffffffffff168152602001908152602001600020819055505050565b6107c281610b14565b6000809054906101000a900473ffffffffffffffffffffffffffffffffffffffff1673ffffffffffffffffffffffffffffffffffffffff1663095ea7b3600160009054906101000a900473ffffffffffffffffffffffffffffffffffffffff16836040518363ffffffff1660e01b8152600401808373ffffffffffffffffffffffffffffffffffffffff1673ffffffffffffffffffffffffffffffffffffffff16815260200182815260200192505050602060405180830381600087803b15801561088c57600080fd5b505af11580156108a0573d6000803e3d6000fd5b505050506040513d60208110156108b657600080fd5b8101908080519060200190929190505050506000600160009054906101000a900473ffffffffffffffffffffffffffffffffffffffff1673ffffffffffffffffffffffffffffffffffffffff1663a0712d68836040518263ffffffff1660e01b815260040180828152602001915050602060405180830381600087803b15801561093f57600080fd5b505af1158015610953573d6000803e3d6000fd5b505050506040513d602081101561096957600080fd5b81019080805190602001909291905050501461098157fe5b61099681600354610dec90919063ffffffff16565b6003819055503373ffffffffffffffffffffffffffffffffffffffff167f6473c9f7da8f23a3d810f05b3e8fb3945f0ad17deadcc09e302cdf5d58e48fe7826040518082815260200191505060405180910390a250565b6000809054906101000a900473ffffffffffffffffffffffffffffffffffffffff1681565b60025481565b600080600160009054906101000a900473ffffffffffffffffffffffffffffffffffffffff1673ffffffffffffffffffffffffffffffffffffffff16633af9e669306040518263ffffffff1660e01b8152600401808273ffffffffffffffffffffffffffffffffffffffff1673ffffffffffffffffffffffffffffffffffffffff168152602001915050602060405180830381600087803b158015610abc57600080fd5b505af1158015610ad0573d6000803e3d6000fd5b505050506040513d6020811015610ae657600080fd5b81019080805190602001909291905050509050610b0e60035482610e0b90919063ffffffff16565b91505090565b6000809054906101000a900473ffffffffffffffffffffffffffffffffffffffff1673ffffffffffffffffffffffffffffffffffffffff166323b872dd3330846040518463ffffffff1660e01b8152600401808473ffffffffffffffffffffffffffffffffffffffff1673ffffffffffffffffffffffffffffffffffffffff1681526020018373ffffffffffffffffffffffffffffffffffffffff1673ffffffffffffffffffffffffffffffffffffffff1681526020018281526020019350505050602060405180830381600087803b158015610bf057600080fd5b505af1158015610c04573d6000803e3d6000fd5b505050506040513d6020811015610c1a57600080fd5b8101908080519060200190929190505050610c9d576040517f08c379a000000000000000000000000000000000000000000000000000000000815260040180806020018281038252600d8152602001807f5472616e73666572204661696c0000000000000000000000000000000000000081525060200191505060405180910390fd5b610cb281600254610dec90919063ffffffff16565b6002819055503373ffffffffffffffffffffffffffffffffffffffff167f2da466a7b24304f47e87fa2e1e5a81b9831ce54fec19055ce277ca2f39ba42c4826040518082815260200191505060405180910390a250565b6000600160009054906101000a900473ffffffffffffffffffffffffffffffffffffffff1673ffffffffffffffffffffffffffffffffffffffff16633af9e669306040518263ffffffff1660e01b8152600401808273ffffffffffffffffffffffffffffffffffffffff1673ffffffffffffffffffffffffffffffffffffffff168152602001915050602060405180830381600087803b158015610dac57600080fd5b505af1158015610dc0573d6000803e3d6000fd5b505050506040513d6020811015610dd657600080fd5b8101908080519060200190929190505050905090565b600080828401905083811015610e0157600080fd5b8091505092915050565b600082821115610e1a57600080fd5b60008284039050809150509291505056fea265627a7a72315820a671ad642ae95be02b1f1d167be6efb0dff0989243fa1593ce67fa89cc06a99464736f6c63430005100032",
  "source": "pragma solidity >= 0.5.0 < 0.7.0;\nimport \"../centre-tokens/contracts/FiatTokenV1.sol\";\nimport \"../compound-protocol/contracts/CErc20.sol\";\n\ncontract DonationAccountFactory {\n  function createInstance(address _usdc_address, address _cusdc_address) public returns (address){\n    return address(new DonationAccount(_usdc_address, _cusdc_address));\n  }\n}\n\ncontract DonationAccount {\n  FiatTokenV1 public usdc;\n  CErc20 public cusdc;\n  uint public deposited_balance;\n  uint public supplied_balance;\n  address[] public projects;\n  mapping(address => uint) public donate_amount;\n  using SafeMath for uint256;\n\n  constructor(address _usdc_address, address _cusdc_address) public {\n\t  usdc = FiatTokenV1(_usdc_address);\n\t  cusdc = CErc20(_cusdc_address);\n  }\n\n  /**\n   * Emitted when a user deposits into the Contract.\n   * @param sender The purchaser of the tickets\n   * @param amount The size of the deposit\n   */\n  event Deposited(address indexed sender, uint256 amount);\n\n  /**\n   * Emitted when a user supplies into the Compound.\n   * @param sender The purchaser of the tickets\n   * @param amount The size of the deposit\n   */\n  event Supplied(address indexed sender, uint256 amount);\n\n\n\n  /**\n   * @notice Deposits.  Updates their balance and transfers their tokens into this contract.\n   * @param _amount The amount they are depositing\n   */\n  function _deposit(uint _amount) public {\n    // Transfer the tokens into this contract\n    require(usdc.transferFrom(msg.sender, address(this), _amount), \"Transfer Fail\");\n\n    // Update the user's balance\n    deposited_balance = deposited_balance.add(_amount);\n\n\temit Deposited(msg.sender, _amount);\n  }\n\n  function supply(uint _amount) public {\n    _deposit(_amount);\n    usdc.approve(address(cusdc),_amount);\n    assert(cusdc.mint(_amount) == 0);\n    supplied_balance = supplied_balance.add(_amount);\n\n\temit Supplied(msg.sender, _amount);\n  }\n\n  function add_donate_project(address _project_address, uint _amount) public {\n    projects.push(_project_address);\n    donate_amount[_project_address] = donate_amount[_project_address].add(_amount);\n  }\n\n  function getUnderlyingBalance() public returns(uint) {\n    return cusdc.balanceOfUnderlying(address(this));\n  }\n\n  function getInterestBalance() public returns(uint) {\n    uint _balance = cusdc.balanceOfUnderlying(address(this));\n    return _balance.sub(supplied_balance);\n  }\n\n  function donate(address _project_address) public {\n    uint _amount = donate_amount[_project_address];\n    require(cusdc.redeemUnderlying(_amount) == 0, \"something went wrong\");\n    require(usdc.transfer(_project_address, _amount), \"Transfer Fail\");\n  }\n\n  /*function redeem(uint _amount) public {\n    require(cusdc.redeemUnderlying(_amount) == 0, \"something went wrong\");\n    require(usdc.transfer(msg.sender, _amount), \"Transfer Fail\");\n  } */\n}\n",
  "sourcePath": "/Users/yukitanaka/Documents/dev/solidity/defi-donation/contracts/DonationAccountFactory.sol",
  "compiler": {
    "name": "solc",
    "version": "0.5.16+commit.9c3226ce.Emscripten.clang"
  },
  "schemaVersion": "3.0.22",
  "updatedAt": "2020-02-25T18:32:57.798Z",
  "devdoc": {
    "methods": {
      "_deposit(uint256)": {
        "params": {
          "_amount": "The amount they are depositing"
        }
      }
    }
  },
  "userdoc": {
    "methods": {
      "_deposit(uint256)": {
        "notice": "Deposits.  Updates their balance and transfers their tokens into this contract."
      }
    }
  }
}